:100000000C942A000C9434000C9434000C943400AA
:100010000C9434000C9434000C9434000C94340090
:100020000C9434000C9434000C9434000C94340080
:100030000C9434000C9434000C9434000C94340070
:100040000C9434000C9434000C9434000C94340060
:100050000C94340011241FBECFE5D8E0DEBFCDBF25
:100060000E94AC000C942C010C940000843008F029
:1000700072C0683008F06FC04130A1F5813089F05E
:1000800028F08230C9F0833011F108952AB381E05D
:1000900090E002C0880F991F6A95E2F7822B8ABB15
:1000A000089527B381E090E002C0880F991F6A95F8
:1000B000E2F7822B87BB089524B381E090E002C071
:1000C000880F991F6A95E2F7822B84BB089521B3AC
:1000D00081E090E002C0880F991F6A95E2F7822BB9
:1000E00081BB0895411137C0813091F028F08230F2
:1000F000D9F0833029F108952AB381E090E002C05D
:10010000880F991F6A95E2F7809582238ABB08952C
:1001100027B381E090E002C0880F991F6A95E2F74B
:100120008095822387BB089524B381E090E002C0CC
:10013000880F991F6A95E2F78095822384BB089502
:1001400021B381E090E002C0880F991F6A95E2F721
:100150008095822381BB089560E875E280E090E09D
:100160000E94D8000E94B9000E9406010E94D4009B
:10017000FBCF41E064E081E00E94360041E065E0B1
:1001800081E00E94360040E066E081E00E94360097
:1001900041E067E081E00E9436008DB180618DB959
:1001A0008DB180648DB90895779BFECF8FB108958E
:1001B0002AB128612AB920B5266820BDDC01CB010F
:1001C000880F991FAA1FBB1F880F991FAA1FBB1F4B
:1001D0009C01AD01220F331F441F551F220F331FF7
:1001E000441F551F60E074E284EF90E00E940A0112
:1001F0008FEF820F89B9DA01C9010197A109B1090D
:10020000892F9A2FAB2FBB2780BD08955F9BFECF10
:100210008CB10895A1E21A2EAA1BBB1BFD010DC0D3
:10022000AA1FBB1FEE1FFF1FA217B307E407F507A6
:1002300020F0A21BB30BE40BF50B661F771F881F82
:10024000991F1A9469F760957095809590959B0118
:0C025000AC01BD01CF010895F894FFCF70
:00000001FF
